{
  "contractName": "VotesContract",
  "abi": [
    {
      "inputs": [],
      "stateMutability": "nonpayable",
      "type": "constructor"
    },
    {
      "inputs": [
        {
          "internalType": "uint256",
          "name": "",
          "type": "uint256"
        }
      ],
      "name": "candidates",
      "outputs": [
        {
          "internalType": "uint256",
          "name": "id",
          "type": "uint256"
        },
        {
          "internalType": "string",
          "name": "name",
          "type": "string"
        },
        {
          "internalType": "uint256",
          "name": "total",
          "type": "uint256"
        }
      ],
      "stateMutability": "view",
      "type": "function"
    },
    {
      "inputs": [],
      "name": "countCandidate",
      "outputs": [
        {
          "internalType": "uint256",
          "name": "",
          "type": "uint256"
        }
      ],
      "stateMutability": "view",
      "type": "function"
    },
    {
      "inputs": [],
      "name": "countVoters",
      "outputs": [
        {
          "internalType": "uint256",
          "name": "",
          "type": "uint256"
        }
      ],
      "stateMutability": "view",
      "type": "function"
    },
    {
      "inputs": [],
      "name": "seller",
      "outputs": [
        {
          "internalType": "address",
          "name": "",
          "type": "address"
        }
      ],
      "stateMutability": "view",
      "type": "function"
    },
    {
      "inputs": [
        {
          "internalType": "uint256",
          "name": "",
          "type": "uint256"
        }
      ],
      "name": "voters",
      "outputs": [
        {
          "internalType": "uint256",
          "name": "id",
          "type": "uint256"
        }
      ],
      "stateMutability": "view",
      "type": "function"
    },
    {
      "inputs": [
        {
          "internalType": "uint256",
          "name": "_id",
          "type": "uint256"
        },
        {
          "internalType": "string",
          "name": "name",
          "type": "string"
        }
      ],
      "name": "createCandidate",
      "outputs": [],
      "stateMutability": "nonpayable",
      "type": "function"
    },
    {
      "inputs": [
        {
          "internalType": "uint256",
          "name": "_id",
          "type": "uint256"
        }
      ],
      "name": "registerVoter",
      "outputs": [],
      "stateMutability": "nonpayable",
      "type": "function"
    },
    {
      "inputs": [
        {
          "internalType": "uint256",
          "name": "_idCandidate",
          "type": "uint256"
        },
        {
          "internalType": "uint256",
          "name": "_idVoter",
          "type": "uint256"
        }
      ],
      "name": "saveVote",
      "outputs": [],
      "stateMutability": "nonpayable",
      "type": "function"
    },
    {
      "inputs": [
        {
          "internalType": "uint256",
          "name": "_idCandidate",
          "type": "uint256"
        }
      ],
      "name": "countCandidateVotes",
      "outputs": [
        {
          "internalType": "uint256",
          "name": "",
          "type": "uint256"
        }
      ],
      "stateMutability": "view",
      "type": "function"
    },
    {
      "inputs": [],
      "name": "countVotesTotal",
      "outputs": [
        {
          "internalType": "uint256",
          "name": "",
          "type": "uint256"
        }
      ],
      "stateMutability": "view",
      "type": "function"
    },
    {
      "inputs": [
        {
          "internalType": "uint256",
          "name": "_idVoter",
          "type": "uint256"
        }
      ],
      "name": "validateVoter",
      "outputs": [
        {
          "internalType": "bool",
          "name": "",
          "type": "bool"
        }
      ],
      "stateMutability": "view",
      "type": "function"
    },
    {
      "inputs": [
        {
          "internalType": "uint256",
          "name": "_idCandidate",
          "type": "uint256"
        }
      ],
      "name": "validateCandidate",
      "outputs": [
        {
          "internalType": "bool",
          "name": "",
          "type": "bool"
        }
      ],
      "stateMutability": "view",
      "type": "function"
    }
  ],
  "bytecode": "0x6080604052600060015560006002553480156200001b57600080fd5b506200006460006040518060400160405280600981526020017f4a75616e20536f746f0000000000000000000000000000000000000000000000815250620000fa60201b60201c565b620000ac60016040518060400160405280600b81526020017f4d61726961204c6f70657a000000000000000000000000000000000000000000815250620000fa60201b60201c565b620000f460026040518060400160405280600d81526020017f506564726f2052616d6972657a00000000000000000000000000000000000000815250620000fa60201b60201c565b62000319565b6040518060600160405280838152602001828152602001600081525060036000848152602001908152602001600020600082015181600001556020820151816001019080519060200190620001519291906200017d565b506040820151816002015590505060016000815480929190620001749062000266565b91905055505050565b8280546200018b90620002e3565b90600052602060002090601f016020900481019282620001af5760008555620001fb565b82601f10620001ca57805160ff1916838001178555620001fb565b82800160010185558215620001fb579182015b82811115620001fa578251825591602001919060010190620001dd565b5b5090506200020a91906200020e565b5090565b5b80821115620002295760008160009055506001016200020f565b5090565b7f4e487b7100000000000000000000000000000000000000000000000000000000600052601160045260246000fd5b6000819050919050565b600062000273826200025c565b91507fffffffffffffffffffffffffffffffffffffffffffffffffffffffffffffffff821415620002a957620002a86200022d565b5b600182019050919050565b7f4e487b7100000000000000000000000000000000000000000000000000000000600052602260045260246000fd5b60006002820490506001821680620002fc57607f821691505b60208210811415620003135762000312620002b4565b5b50919050565b6110cc80620003296000396000f3fe608060405234801561001057600080fd5b50600436106100b45760003560e01c806373ddf4111161007157806373ddf41114610191578063a13f2f8d146101ad578063a644069e146101c9578063b27a21fa146101e7578063d0fc01a514610217578063da58c7d914610247576100b4565b806308551a53146100b95780633477ee2e146100d7578063349c7f80146101095780634656ef66146101275780636057f8381461014557806371c697aa14610161575b600080fd5b6100c1610277565b6040516100ce9190610aa9565b60405180910390f35b6100f160048036038101906100ec9190610b0e565b61029b565b60405161010093929190610be3565b60405180910390f35b61011161034d565b60405161011e9190610c21565b60405180910390f35b61012f610457565b60405161013c9190610c21565b60405180910390f35b61015f600480360381019061015a9190610c3c565b61045d565b005b61017b60048036038101906101769190610b0e565b61070e565b6040516101889190610c97565b60405180910390f35b6101ab60048036038101906101a69190610de7565b610762565b005b6101c760048036038101906101c29190610b0e565b6107e1565b005b6101d161082d565b6040516101de9190610c21565b60405180910390f35b61020160048036038101906101fc9190610b0e565b610833565b60405161020e9190610c21565b60405180910390f35b610231600480360381019061022c9190610b0e565b610953565b60405161023e9190610c97565b60405180910390f35b610261600480360381019061025c9190610b0e565b6109a7565b60405161026e9190610c21565b60405180910390f35b60008054906101000a900473ffffffffffffffffffffffffffffffffffffffff1681565b60036020528060005260406000206000915090508060000154908060010180546102c490610e72565b80601f01602080910402602001604051908101604052809291908181526020018280546102f090610e72565b801561033d5780601f106103125761010080835404028352916020019161033d565b820191906000526020600020905b81548152906001019060200180831161032057829003601f168201915b5050505050908060020154905083565b6000806000905060005b60015481101561044f576000600360008381526020019081526020016000206040518060600160405290816000820154815260200160018201805461039b90610e72565b80601f01602080910402602001604051908101604052809291908181526020018280546103c790610e72565b80156104145780601f106103e957610100808354040283529160200191610414565b820191906000526020600020905b8154815290600101906020018083116103f757829003601f168201915b5050505050815260200160028201548152505090508060400151836104399190610ed3565b925050808061044790610f29565b915050610357565b508091505090565b60025481565b6104668261070e565b6104f95760008054906101000a900473ffffffffffffffffffffffffffffffffffffffff1673ffffffffffffffffffffffffffffffffffffffff163373ffffffffffffffffffffffffffffffffffffffff16146104f8576040517f08c379a00000000000000000000000000000000000000000000000000000000081526004016104ef90610fe4565b60405180910390fd5b5b61050281610953565b156105965760008054906101000a900473ffffffffffffffffffffffffffffffffffffffff1673ffffffffffffffffffffffffffffffffffffffff163373ffffffffffffffffffffffffffffffffffffffff1614610595576040517f08c379a000000000000000000000000000000000000000000000000000000000815260040161058c90611076565b60405180910390fd5b5b60005b6001548110156107095782600360008381526020019081526020016000206000015414156106f657600060036000858152602001908152602001600020604051806060016040529081600082015481526020016001820180546105fb90610e72565b80601f016020809104026020016040519081016040528092919081815260200182805461062790610e72565b80156106745780601f1061064957610100808354040283529160200191610674565b820191906000526020600020905b81548152906001019060200180831161065757829003601f168201915b5050505050815260200160028201548152505090506001816040015161069a9190610ed3565b81604001818152505080600360008681526020019081526020016000206000820151816000015560208201518160010190805190602001906106dd9291906109c5565b50604082015181600201559050506106f4836107e1565b505b808061070190610f29565b915050610599565b505050565b6000806000905060005b60015481101561075857836003600083815260200190815260200160002060000154141561074557600191505b808061075090610f29565b915050610718565b5080915050919050565b60405180606001604052808381526020018281526020016000815250600360008481526020019081526020016000206000820151816000015560208201518160010190805190602001906107b79291906109c5565b5060408201518160020155905050600160008154809291906107d890610f29565b91905055505050565b604051806020016040528082815250600460006002548152602001908152602001600020600082015181600001559050506002600081548092919061082590610f29565b919050555050565b60015481565b6000806000905060005b600154811015610949578360036000838152602001908152602001600020600001541415610936576000600360008681526020019081526020016000206040518060600160405290816000820154815260200160018201805461089f90610e72565b80601f01602080910402602001604051908101604052809291908181526020018280546108cb90610e72565b80156109185780601f106108ed57610100808354040283529160200191610918565b820191906000526020600020905b8154815290600101906020018083116108fb57829003601f168201915b50505050508152602001600282015481525050905080604001519250505b808061094190610f29565b91505061083d565b5080915050919050565b6000806000905060005b60025481101561099d57836004600083815260200190815260200160002060000154141561098a57600191505b808061099590610f29565b91505061095d565b5080915050919050565b60046020528060005260406000206000915090508060000154905081565b8280546109d190610e72565b90600052602060002090601f0160209004810192826109f35760008555610a3a565b82601f10610a0c57805160ff1916838001178555610a3a565b82800160010185558215610a3a579182015b82811115610a39578251825591602001919060010190610a1e565b5b509050610a479190610a4b565b5090565b5b80821115610a64576000816000905550600101610a4c565b5090565b600073ffffffffffffffffffffffffffffffffffffffff82169050919050565b6000610a9382610a68565b9050919050565b610aa381610a88565b82525050565b6000602082019050610abe6000830184610a9a565b92915050565b6000604051905090565b600080fd5b600080fd5b6000819050919050565b610aeb81610ad8565b8114610af657600080fd5b50565b600081359050610b0881610ae2565b92915050565b600060208284031215610b2457610b23610ace565b5b6000610b3284828501610af9565b91505092915050565b610b4481610ad8565b82525050565b600081519050919050565b600082825260208201905092915050565b60005b83811015610b84578082015181840152602081019050610b69565b83811115610b93576000848401525b50505050565b6000601f19601f8301169050919050565b6000610bb582610b4a565b610bbf8185610b55565b9350610bcf818560208601610b66565b610bd881610b99565b840191505092915050565b6000606082019050610bf86000830186610b3b565b8181036020830152610c0a8185610baa565b9050610c196040830184610b3b565b949350505050565b6000602082019050610c366000830184610b3b565b92915050565b60008060408385031215610c5357610c52610ace565b5b6000610c6185828601610af9565b9250506020610c7285828601610af9565b9150509250929050565b60008115159050919050565b610c9181610c7c565b82525050565b6000602082019050610cac6000830184610c88565b92915050565b600080fd5b600080fd5b7f4e487b7100000000000000000000000000000000000000000000000000000000600052604160045260246000fd5b610cf482610b99565b810181811067ffffffffffffffff82111715610d1357610d12610cbc565b5b80604052505050565b6000610d26610ac4565b9050610d328282610ceb565b919050565b600067ffffffffffffffff821115610d5257610d51610cbc565b5b610d5b82610b99565b9050602081019050919050565b82818337600083830152505050565b6000610d8a610d8584610d37565b610d1c565b905082815260208101848484011115610da657610da5610cb7565b5b610db1848285610d68565b509392505050565b600082601f830112610dce57610dcd610cb2565b5b8135610dde848260208601610d77565b91505092915050565b60008060408385031215610dfe57610dfd610ace565b5b6000610e0c85828601610af9565b925050602083013567ffffffffffffffff811115610e2d57610e2c610ad3565b5b610e3985828601610db9565b9150509250929050565b7f4e487b7100000000000000000000000000000000000000000000000000000000600052602260045260246000fd5b60006002820490506001821680610e8a57607f821691505b60208210811415610e9e57610e9d610e43565b5b50919050565b7f4e487b7100000000000000000000000000000000000000000000000000000000600052601160045260246000fd5b6000610ede82610ad8565b9150610ee983610ad8565b9250827fffffffffffffffffffffffffffffffffffffffffffffffffffffffffffffffff03821115610f1e57610f1d610ea4565b5b828201905092915050565b6000610f3482610ad8565b91507fffffffffffffffffffffffffffffffffffffffffffffffffffffffffffffffff821415610f6757610f66610ea4565b5b600182019050919050565b7f4e6f20736520656e6375656e74726120656c2063616e64696461746f20696e6460008201527f696361646f2e0000000000000000000000000000000000000000000000000000602082015250565b6000610fce602683610b55565b9150610fd982610f72565b604082019050919050565b60006020820190508181036000830152610ffd81610fc1565b9050919050565b7f566f746f207961207265676973747261646f20706f7220656c2075737561726960008201527f6f20696e6772657361646f2e0000000000000000000000000000000000000000602082015250565b6000611060602c83610b55565b915061106b82611004565b604082019050919050565b6000602082019050818103600083015261108f81611053565b905091905056fea264697066735822122011a49b5ec824fd42a87d162ce443bc2dfc9f297301b45ad74a1a935bff73807d64736f6c634300080a0033",
  "immutableReferences": {},
  "source": "// SPDX-License-Identifier: MIT\r\npragma solidity ^0.8.6;\r\n\r\ncontract VotesContract {\r\n\r\n    address public seller;\r\n\r\n    uint256 public countCandidate = 0;\r\n    uint256 public countVoters = 0;\r\n\r\n    struct Candidate {\r\n        uint256 id;\r\n        string name;\r\n        uint256 total;\r\n    }\r\n\r\n    struct Voter {\r\n        uint256 id;\r\n    }\r\n\r\n    mapping (uint256 => Candidate) public candidates;\r\n    mapping (uint256 => Voter) public voters;\r\n\r\n    constructor() {\r\n        createCandidate(0,\"Juan Soto\");\r\n        createCandidate(1,\"Maria Lopez\");\r\n        createCandidate(2,\"Pedro Ramirez\"); \r\n    }\r\n\r\n    function createCandidate(uint256 _id , string memory name ) public  {\r\n        candidates[_id] = Candidate(_id,name,0);\r\n        countCandidate++;\r\n    }\r\n\r\n    function registerVoter(uint256 _id ) public  {\r\n        voters[countVoters] = Voter(_id);\r\n        countVoters++;\r\n    }\r\n\r\n    function saveVote(uint256 _idCandidate , uint256 _idVoter  ) public  {\r\n\r\n        if(!validateCandidate(_idCandidate)){\r\n            require(\r\n                msg.sender == seller,\r\n                \"No se encuentra el candidato indicado.\"\r\n            );\r\n        }\r\n\r\n        if(validateVoter(_idVoter)){\r\n            require(\r\n                msg.sender == seller,\r\n                \"Voto ya registrado por el usuario ingresado.\"\r\n            );\r\n        }\r\n\r\n    \r\n        for (uint256 index = 0; index < countCandidate; index++) {\r\n            \r\n            if(candidates[index].id == _idCandidate){\r\n\r\n                Candidate memory _candidate = candidates[_idCandidate];\r\n                _candidate.total = _candidate.total + 1;\r\n                candidates[_idCandidate] = _candidate;\r\n\r\n                registerVoter(_idVoter);\r\n               \r\n            }\r\n        }\r\n\r\n    }\r\n\r\n    function countCandidateVotes(uint256 _idCandidate) public view returns (uint)  {\r\n\r\n        uint totalVotes = 0;\r\n        \r\n        for (uint256 index = 0; index < countCandidate; index++) {\r\n                \r\n            if(candidates[index].id == _idCandidate){\r\n                Candidate memory _candidate = candidates[_idCandidate];\r\n                totalVotes = _candidate.total;\r\n            }\r\n        }\r\n\r\n      return totalVotes;\r\n\r\n    }\r\n\r\n    function countVotesTotal() public view returns (uint)  {\r\n\r\n        uint totalVotes = 0;\r\n\r\n        for (uint256 index = 0; index < countCandidate; index++) {\r\n        \r\n            Candidate memory _candidate = candidates[index];\r\n            totalVotes = totalVotes + _candidate.total;\r\n\r\n        }\r\n\r\n      return totalVotes;\r\n\r\n    }\r\n\r\n    function validateVoter( uint256 _idVoter)  public   view returns (bool) {\r\n\r\n        bool result = false;\r\n\r\n        for (uint256 index = 0; index < countVoters; index++) {\r\n            \r\n            if(voters[index].id == _idVoter){\r\n                result = true;\r\n            }\r\n\r\n        }\r\n\r\n        return result;\r\n    }\r\n\r\n    function validateCandidate(uint256 _idCandidate ) public   view returns (bool) {\r\n\r\n        bool result = false;\r\n\r\n        for (uint256 index = 0; index < countCandidate; index++) {\r\n            \r\n            if(candidates[index].id == _idCandidate){\r\n                result = true;\r\n            }\r\n\r\n        }\r\n\r\n        return result;\r\n\r\n    }\r\n\r\n}",
  "sourcePath": "C:\\Users\\Vicente Muoz\\Documents\\Ether\\backend\\contracts\\VotesContract.sol",
  "compiler": {
    "name": "solc",
    "version": "0.8.10+commit.fc410830.Emscripten.clang"
  },
  "schemaVersion": "3.4.4",
  "updatedAt": "2021-12-28T13:08:21.802Z",
  "devdoc": {
    "kind": "dev",
    "methods": {},
    "version": 1
  },
  "userdoc": {
    "kind": "user",
    "methods": {},
    "version": 1
  }
}